{
  "address": "0xcbDb405c9Cd638469fb36828390C9B69D4A7bDF3",
  "abi": [
    {
      "inputs": [],
      "stateMutability": "nonpayable",
      "type": "constructor"
    },
    {
      "anonymous": false,
      "inputs": [
        {
          "indexed": true,
          "internalType": "bytes32",
          "name": "id",
          "type": "bytes32"
        }
      ],
      "name": "ChainlinkCancelled",
      "type": "event"
    },
    {
      "anonymous": false,
      "inputs": [
        {
          "indexed": true,
          "internalType": "bytes32",
          "name": "id",
          "type": "bytes32"
        }
      ],
      "name": "ChainlinkFulfilled",
      "type": "event"
    },
    {
      "anonymous": false,
      "inputs": [
        {
          "indexed": true,
          "internalType": "bytes32",
          "name": "id",
          "type": "bytes32"
        }
      ],
      "name": "ChainlinkRequested",
      "type": "event"
    },
    {
      "anonymous": false,
      "inputs": [
        {
          "indexed": true,
          "internalType": "bytes32",
          "name": "requestId",
          "type": "bytes32"
        },
        {
          "indexed": false,
          "internalType": "string",
          "name": "location",
          "type": "string"
        },
        {
          "indexed": true,
          "internalType": "uint256",
          "name": "score",
          "type": "uint256"
        }
      ],
      "name": "DrivingExperienceEvaluated",
      "type": "event"
    },
    {
      "anonymous": false,
      "inputs": [
        {
          "indexed": true,
          "internalType": "bytes32",
          "name": "requestId",
          "type": "bytes32"
        },
        {
          "indexed": true,
          "internalType": "address",
          "name": "requester",
          "type": "address"
        },
        {
          "indexed": false,
          "internalType": "string",
          "name": "location",
          "type": "string"
        }
      ],
      "name": "DrivingExperienceRequested",
      "type": "event"
    },
    {
      "anonymous": false,
      "inputs": [
        {
          "indexed": true,
          "internalType": "address",
          "name": "from",
          "type": "address"
        },
        {
          "indexed": true,
          "internalType": "address",
          "name": "to",
          "type": "address"
        }
      ],
      "name": "OwnershipTransferRequested",
      "type": "event"
    },
    {
      "anonymous": false,
      "inputs": [
        {
          "indexed": true,
          "internalType": "address",
          "name": "from",
          "type": "address"
        },
        {
          "indexed": true,
          "internalType": "address",
          "name": "to",
          "type": "address"
        }
      ],
      "name": "OwnershipTransferred",
      "type": "event"
    },
    {
      "inputs": [],
      "name": "acceptOwnership",
      "outputs": [],
      "stateMutability": "nonpayable",
      "type": "function"
    },
    {
      "inputs": [],
      "name": "drivingExperienceLocation",
      "outputs": [
        {
          "internalType": "string",
          "name": "",
          "type": "string"
        }
      ],
      "stateMutability": "view",
      "type": "function"
    },
    {
      "inputs": [],
      "name": "drivingExperienceScore",
      "outputs": [
        {
          "internalType": "uint256",
          "name": "",
          "type": "uint256"
        }
      ],
      "stateMutability": "view",
      "type": "function"
    },
    {
      "inputs": [
        {
          "internalType": "bytes32",
          "name": "_requestId",
          "type": "bytes32"
        },
        {
          "internalType": "uint256",
          "name": "temperature",
          "type": "uint256"
        },
        {
          "internalType": "uint256",
          "name": "humidity",
          "type": "uint256"
        },
        {
          "internalType": "uint256",
          "name": "windSpeed",
          "type": "uint256"
        },
        {
          "internalType": "string",
          "name": "location",
          "type": "string"
        }
      ],
      "name": "fulfillDrivingExperience",
      "outputs": [],
      "stateMutability": "nonpayable",
      "type": "function"
    },
    {
      "inputs": [],
      "name": "getDrivingExperience",
      "outputs": [
        {
          "internalType": "uint256",
          "name": "",
          "type": "uint256"
        },
        {
          "internalType": "string",
          "name": "",
          "type": "string"
        }
      ],
      "stateMutability": "view",
      "type": "function"
    },
    {
      "inputs": [],
      "name": "lastRequestId",
      "outputs": [
        {
          "internalType": "bytes32",
          "name": "",
          "type": "bytes32"
        }
      ],
      "stateMutability": "view",
      "type": "function"
    },
    {
      "inputs": [],
      "name": "owner",
      "outputs": [
        {
          "internalType": "address",
          "name": "",
          "type": "address"
        }
      ],
      "stateMutability": "view",
      "type": "function"
    },
    {
      "inputs": [
        {
          "internalType": "address",
          "name": "_oracle",
          "type": "address"
        },
        {
          "internalType": "string",
          "name": "_jobId",
          "type": "string"
        },
        {
          "internalType": "string",
          "name": "_location",
          "type": "string"
        }
      ],
      "name": "requestDrivingExperience",
      "outputs": [],
      "stateMutability": "nonpayable",
      "type": "function"
    },
    {
      "inputs": [
        {
          "internalType": "address",
          "name": "to",
          "type": "address"
        }
      ],
      "name": "transferOwnership",
      "outputs": [],
      "stateMutability": "nonpayable",
      "type": "function"
    }
  ],
  "transactionHash": "0x80384f0c27ff620b59e736cb9dadecbebae058acbbfab2789feab147c1f48bfd",
  "args": [],
  "numDeployments": 1,
  "solcInputHash": "3473decc9abd4ffa435b47ba387532a1",
  "bytecode": "0x608060405260016004553480156200001657600080fd5b50338060008073ffffffffffffffffffffffffffffffffffffffff168273ffffffffffffffffffffffffffffffffffffffff16036200008c576040517f08c379a0000000000000000000000000000000000000000000000000000000008152600401620000839062000318565b60405180910390fd5b81600660006101000a81548173ffffffffffffffffffffffffffffffffffffffff021916908373ffffffffffffffffffffffffffffffffffffffff160217905550600073ffffffffffffffffffffffffffffffffffffffff168173ffffffffffffffffffffffffffffffffffffffff1614620001145762000113816200014260201b60201c565b5b5050506200013c73326c977e6efc84e512bb9c30f76e30c160ed06fb6200027360201b60201c565b620003ac565b3373ffffffffffffffffffffffffffffffffffffffff168173ffffffffffffffffffffffffffffffffffffffff1603620001b3576040517f08c379a0000000000000000000000000000000000000000000000000000000008152600401620001aa906200038a565b60405180910390fd5b80600760006101000a81548173ffffffffffffffffffffffffffffffffffffffff021916908373ffffffffffffffffffffffffffffffffffffffff1602179055508073ffffffffffffffffffffffffffffffffffffffff16600660009054906101000a900473ffffffffffffffffffffffffffffffffffffffff1673ffffffffffffffffffffffffffffffffffffffff167fed8889f560326eb138920d842192f0eb3dd22b4f139c87a2c57538e05bae127860405160405180910390a350565b80600260006101000a81548173ffffffffffffffffffffffffffffffffffffffff021916908373ffffffffffffffffffffffffffffffffffffffff16021790555050565b600082825260208201905092915050565b7f43616e6e6f7420736574206f776e657220746f207a65726f0000000000000000600082015250565b600062000300601883620002b7565b91506200030d82620002c8565b602082019050919050565b600060208201905081810360008301526200033381620002f1565b9050919050565b7f43616e6e6f74207472616e7366657220746f2073656c66000000000000000000600082015250565b600062000372601783620002b7565b91506200037f826200033a565b602082019050919050565b60006020820190508181036000830152620003a58162000363565b9050919050565b61220c80620003bc6000396000f3fe608060405234801561001057600080fd5b50600436106100935760003560e01c80638da5cb5b116100665780638da5cb5b146100f9578063edb2375814610117578063f042f65514610135578063f2fde38b14610153578063fc2a88c31461016f57610093565b80631907d9b6146100985780632b8a19ad146100b4578063611b98b4146100d057806379ba5097146100ef575b600080fd5b6100b260048036038101906100ad919061140b565b61018d565b005b6100ce60048036038101906100c99190611502565b610304565b005b6100d861046d565b6040516100e6929190611627565b60405180910390f35b6100f761050a565b005b6101016106a1565b60405161010e9190611666565b60405180910390f35b61011f6106cb565b60405161012c9190611681565b60405180910390f35b61013d610759565b60405161014a91906116a3565b60405180910390f35b61016d600480360381019061016891906116be565b61075f565b005b610177610773565b60405161018491906116fa565b60405180910390f35b610195610779565b60006101b16101a38461080b565b30632b8a19ad60e01b610834565b90506101fd6040518060400160405280600481526020017f636974790000000000000000000000000000000000000000000000000000000081525083836108659092919063ffffffff16565b61027c6040518060400160405280600681526020017f6170694b657900000000000000000000000000000000000000000000000000008152506040518060400160405280602081526020017f3064653533653662623764623765346561633662353066613734356265623062815250836108659092919063ffffffff16565b6102a78482600a670de0b6b3a764000060016102989190611744565b6102a291906117b5565b610898565b600a819055503373ffffffffffffffffffffffffffffffffffffffff16600a547f2a664f2007adb216b267965df146e83570b0e7774a005b0ebbd68220de664389846040516102f69190611681565b60405180910390a350505050565b846005600082815260200190815260200160002060009054906101000a900473ffffffffffffffffffffffffffffffffffffffff1673ffffffffffffffffffffffffffffffffffffffff163373ffffffffffffffffffffffffffffffffffffffff16146103a6576040517f08c379a000000000000000000000000000000000000000000000000000000000815260040161039d90611858565b60405180910390fd5b6005600082815260200190815260200160002060006101000a81549073ffffffffffffffffffffffffffffffffffffffff0219169055807f7cc135e0cebb02c3480ae5d74d377283180a2601f8f644edf7987b009316c63a60405160405180910390a2610414858585610964565b60088190555081600990816104299190611a84565b50600854867f523865aa6aef1270fbaec4bd7f97cc6a6729feccf8239453d2c4c7b858b8bfb38460405161045d9190611681565b60405180910390a3505050505050565b600060606008546009808054610482906118a7565b80601f01602080910402602001604051908101604052809291908181526020018280546104ae906118a7565b80156104fb5780601f106104d0576101008083540402835291602001916104fb565b820191906000526020600020905b8154815290600101906020018083116104de57829003601f168201915b50505050509050915091509091565b600760009054906101000a900473ffffffffffffffffffffffffffffffffffffffff1673ffffffffffffffffffffffffffffffffffffffff163373ffffffffffffffffffffffffffffffffffffffff161461059a576040517f08c379a000000000000000000000000000000000000000000000000000000000815260040161059190611ba2565b60405180910390fd5b6000600660009054906101000a900473ffffffffffffffffffffffffffffffffffffffff16905033600660006101000a81548173ffffffffffffffffffffffffffffffffffffffff021916908373ffffffffffffffffffffffffffffffffffffffff1602179055506000600760006101000a81548173ffffffffffffffffffffffffffffffffffffffff021916908373ffffffffffffffffffffffffffffffffffffffff1602179055503373ffffffffffffffffffffffffffffffffffffffff168173ffffffffffffffffffffffffffffffffffffffff167f8be0079c531659141344cd1fd0a4f28419497f9722a3daafe3b4186f6b6457e060405160405180910390a350565b6000600660009054906101000a900473ffffffffffffffffffffffffffffffffffffffff16905090565b600980546106d8906118a7565b80601f0160208091040260200160405190810160405280929190818152602001828054610704906118a7565b80156107515780601f1061072657610100808354040283529160200191610751565b820191906000526020600020905b81548152906001019060200180831161073457829003601f168201915b505050505081565b60085481565b610767610779565b610770816109ce565b50565b600a5481565b600660009054906101000a900473ffffffffffffffffffffffffffffffffffffffff1673ffffffffffffffffffffffffffffffffffffffff163373ffffffffffffffffffffffffffffffffffffffff1614610809576040517f08c379a000000000000000000000000000000000000000000000000000000000815260040161080090611c0e565b60405180910390fd5b565b6000808290506000815103610826576000801b91505061082f565b60208301519150505b919050565b61083c6111cc565b6108446111cc565b61085b85858584610afc909392919063ffffffff16565b9150509392505050565b61087c828460800151610bac90919063ffffffff16565b610893818460800151610bac90919063ffffffff16565b505050565b60008060045490506001816108ad9190611c2e565b6004819055506000634042994660e01b60008087600001513089604001518760018c60800151600001516040516024016108ee989796959493929190611cf2565b604051602081830303815290604052907bffffffffffffffffffffffffffffffffffffffffffffffffffffffff19166020820180517bffffffffffffffffffffffffffffffffffffffffffffffffffffffff8381831617835250505050905061095986838684610bd1565b925050509392505050565b6000806064905061012f85118061097c575061011185105b1561099157601e8161098e9190611d77565b90505b60468411156109aa576014816109a79190611d77565b90505b600a8311156109c3576014816109c09190611d77565b90505b809150509392505050565b3373ffffffffffffffffffffffffffffffffffffffff168173ffffffffffffffffffffffffffffffffffffffff1603610a3c576040517f08c379a0000000000000000000000000000000000000000000000000000000008152600401610a3390611df7565b60405180910390fd5b80600760006101000a81548173ffffffffffffffffffffffffffffffffffffffff021916908373ffffffffffffffffffffffffffffffffffffffff1602179055508073ffffffffffffffffffffffffffffffffffffffff16600660009054906101000a900473ffffffffffffffffffffffffffffffffffffffff1673ffffffffffffffffffffffffffffffffffffffff167fed8889f560326eb138920d842192f0eb3dd22b4f139c87a2c57538e05bae127860405160405180910390a350565b610b046111cc565b610b148560800151610100610d66565b508385600001818152505082856020019073ffffffffffffffffffffffffffffffffffffffff16908173ffffffffffffffffffffffffffffffffffffffff16815250508185604001907bffffffffffffffffffffffffffffffffffffffffffffffffffffffff191690817bffffffffffffffffffffffffffffffffffffffffffffffffffffffff191681525050849050949350505050565b610bb98260038351610dd0565b610bcc8183610f5590919063ffffffff16565b505050565b60003084604051602001610be6929190611ec6565b604051602081830303815290604052805190602001209050846005600083815260200190815260200160002060006101000a81548173ffffffffffffffffffffffffffffffffffffffff021916908373ffffffffffffffffffffffffffffffffffffffff160217905550807fb5e6e01e79f91267dc17b4e6314d5d4d03593d2ceee0fbb452b750bd70ea5af960405160405180910390a2600260009054906101000a900473ffffffffffffffffffffffffffffffffffffffff1673ffffffffffffffffffffffffffffffffffffffff16634000aea08685856040518463ffffffff1660e01b8152600401610cdc93929190611ef2565b6020604051808303816000875af1158015610cfb573d6000803e3d6000fd5b505050506040513d601f19601f82011682018060405250810190610d1f9190611f68565b610d5e576040517f08c379a0000000000000000000000000000000000000000000000000000000008152600401610d5590612007565b60405180910390fd5b949350505050565b610d6e611239565b6000602083610d7d9190612027565b14610da957602082610d8f9190612027565b6020610d9b9190611d77565b82610da69190611c2e565b91505b81836020018181525050604051808452600081528281016020016040525082905092915050565b60178167ffffffffffffffff1611610e0757610e018160058460ff16901b60ff161784610f7790919063ffffffff16565b50610f50565b60ff8167ffffffffffffffff1611610e5d57610e36601860058460ff16901b1784610f7790919063ffffffff16565b50610e578167ffffffffffffffff16600185610f979092919063ffffffff16565b50610f4f565b61ffff8167ffffffffffffffff1611610eb457610e8d601960058460ff16901b1784610f7790919063ffffffff16565b50610eae8167ffffffffffffffff16600285610f979092919063ffffffff16565b50610f4e565b63ffffffff8167ffffffffffffffff1611610f0d57610ee6601a60058460ff16901b1784610f7790919063ffffffff16565b50610f078167ffffffffffffffff16600485610f979092919063ffffffff16565b50610f4d565b610f2a601b60058460ff16901b1784610f7790919063ffffffff16565b50610f4b8167ffffffffffffffff16600885610f979092919063ffffffff16565b505b5b5b5b505050565b610f5d611239565b610f6f83846000015151848551610fb9565b905092915050565b610f7f611239565b610f8f83846000015151846110a8565b905092915050565b610f9f611239565b610fb08485600001515185856110fe565b90509392505050565b610fc1611239565b8251821115610fcf57600080fd5b84602001518285610fe09190611c2e565b111561101557611014856002611005886020015188876110009190611c2e565b61118c565b61100f9190611744565b6111a8565b5b6000808651805187602083010193508088870111156110345787860182525b60208701925050505b6020841061107b57805182526020826110569190611c2e565b91506020816110659190611c2e565b90506020846110749190611d77565b935061103d565b60006001856020036101000a03905080198251168184511681811785525050508692505050949350505050565b6110b0611239565b836020015183106110d6576110d584600286602001516110d09190611744565b6111a8565b5b835180516020858301018481538186036110f1576001820183525b5050508390509392505050565b611106611239565b846020015184836111179190611c2e565b111561113f5761113e856002868561112f9190611c2e565b6111399190611744565b6111a8565b5b6000600183610100611151919061218b565b61115b9190611d77565b9050855183868201018583198251161781528151858801111561117e5784870182525b505085915050949350505050565b60008183111561119e578290506111a2565b8190505b92915050565b6000826000015190506111bb8383610d66565b506111c68382610f55565b50505050565b6040518060a0016040528060008019168152602001600073ffffffffffffffffffffffffffffffffffffffff16815260200160007bffffffffffffffffffffffffffffffffffffffffffffffffffffffff1916815260200160008152602001611233611239565b81525090565b604051806040016040528060608152602001600081525090565b6000604051905090565b600080fd5b600080fd5b600073ffffffffffffffffffffffffffffffffffffffff82169050919050565b600061129282611267565b9050919050565b6112a281611287565b81146112ad57600080fd5b50565b6000813590506112bf81611299565b92915050565b600080fd5b600080fd5b6000601f19601f8301169050919050565b7f4e487b7100000000000000000000000000000000000000000000000000000000600052604160045260246000fd5b611318826112cf565b810181811067ffffffffffffffff82111715611337576113366112e0565b5b80604052505050565b600061134a611253565b9050611356828261130f565b919050565b600067ffffffffffffffff821115611376576113756112e0565b5b61137f826112cf565b9050602081019050919050565b82818337600083830152505050565b60006113ae6113a98461135b565b611340565b9050828152602081018484840111156113ca576113c96112ca565b5b6113d584828561138c565b509392505050565b600082601f8301126113f2576113f16112c5565b5b813561140284826020860161139b565b91505092915050565b6000806000606084860312156114245761142361125d565b5b6000611432868287016112b0565b935050602084013567ffffffffffffffff81111561145357611452611262565b5b61145f868287016113dd565b925050604084013567ffffffffffffffff8111156114805761147f611262565b5b61148c868287016113dd565b9150509250925092565b6000819050919050565b6114a981611496565b81146114b457600080fd5b50565b6000813590506114c6816114a0565b92915050565b6000819050919050565b6114df816114cc565b81146114ea57600080fd5b50565b6000813590506114fc816114d6565b92915050565b600080600080600060a0868803121561151e5761151d61125d565b5b600061152c888289016114b7565b955050602061153d888289016114ed565b945050604061154e888289016114ed565b935050606061155f888289016114ed565b925050608086013567ffffffffffffffff8111156115805761157f611262565b5b61158c888289016113dd565b9150509295509295909350565b6115a2816114cc565b82525050565b600081519050919050565b600082825260208201905092915050565b60005b838110156115e25780820151818401526020810190506115c7565b60008484015250505050565b60006115f9826115a8565b61160381856115b3565b93506116138185602086016115c4565b61161c816112cf565b840191505092915050565b600060408201905061163c6000830185611599565b818103602083015261164e81846115ee565b90509392505050565b61166081611287565b82525050565b600060208201905061167b6000830184611657565b92915050565b6000602082019050818103600083015261169b81846115ee565b905092915050565b60006020820190506116b86000830184611599565b92915050565b6000602082840312156116d4576116d361125d565b5b60006116e2848285016112b0565b91505092915050565b6116f481611496565b82525050565b600060208201905061170f60008301846116eb565b92915050565b7f4e487b7100000000000000000000000000000000000000000000000000000000600052601160045260246000fd5b600061174f826114cc565b915061175a836114cc565b9250828202611768816114cc565b9150828204841483151761177f5761177e611715565b5b5092915050565b7f4e487b7100000000000000000000000000000000000000000000000000000000600052601260045260246000fd5b60006117c0826114cc565b91506117cb836114cc565b9250826117db576117da611786565b5b828204905092915050565b7f536f75726365206d75737420626520746865206f7261636c65206f662074686560008201527f2072657175657374000000000000000000000000000000000000000000000000602082015250565b60006118426028836115b3565b915061184d826117e6565b604082019050919050565b6000602082019050818103600083015261187181611835565b9050919050565b7f4e487b7100000000000000000000000000000000000000000000000000000000600052602260045260246000fd5b600060028204905060018216806118bf57607f821691505b6020821081036118d2576118d1611878565b5b50919050565b60008190508160005260206000209050919050565b60006020601f8301049050919050565b600082821b905092915050565b60006008830261193a7fffffffffffffffffffffffffffffffffffffffffffffffffffffffffffffffff826118fd565b61194486836118fd565b95508019841693508086168417925050509392505050565b6000819050919050565b600061198161197c611977846114cc565b61195c565b6114cc565b9050919050565b6000819050919050565b61199b83611966565b6119af6119a782611988565b84845461190a565b825550505050565b600090565b6119c46119b7565b6119cf818484611992565b505050565b5b818110156119f3576119e86000826119bc565b6001810190506119d5565b5050565b601f821115611a3857611a09816118d8565b611a12846118ed565b81016020851015611a21578190505b611a35611a2d856118ed565b8301826119d4565b50505b505050565b600082821c905092915050565b6000611a5b60001984600802611a3d565b1980831691505092915050565b6000611a748383611a4a565b9150826002028217905092915050565b611a8d826115a8565b67ffffffffffffffff811115611aa657611aa56112e0565b5b611ab082546118a7565b611abb8282856119f7565b600060209050601f831160018114611aee5760008415611adc578287015190505b611ae68582611a68565b865550611b4e565b601f198416611afc866118d8565b60005b82811015611b2457848901518255600182019150602085019450602081019050611aff565b86831015611b415784890151611b3d601f891682611a4a565b8355505b6001600288020188555050505b505050505050565b7f4d7573742062652070726f706f736564206f776e657200000000000000000000600082015250565b6000611b8c6016836115b3565b9150611b9782611b56565b602082019050919050565b60006020820190508181036000830152611bbb81611b7f565b9050919050565b7f4f6e6c792063616c6c61626c65206279206f776e657200000000000000000000600082015250565b6000611bf86016836115b3565b9150611c0382611bc2565b602082019050919050565b60006020820190508181036000830152611c2781611beb565b9050919050565b6000611c39826114cc565b9150611c44836114cc565b9250828201905080821115611c5c57611c5b611715565b5b92915050565b60007fffffffff0000000000000000000000000000000000000000000000000000000082169050919050565b611c9781611c62565b82525050565b600081519050919050565b600082825260208201905092915050565b6000611cc482611c9d565b611cce8185611ca8565b9350611cde8185602086016115c4565b611ce7816112cf565b840191505092915050565b600061010082019050611d08600083018b611657565b611d15602083018a611599565b611d2260408301896116eb565b611d2f6060830188611657565b611d3c6080830187611c8e565b611d4960a0830186611599565b611d5660c0830185611599565b81810360e0830152611d688184611cb9565b90509998505050505050505050565b6000611d82826114cc565b9150611d8d836114cc565b9250828203905081811115611da557611da4611715565b5b92915050565b7f43616e6e6f74207472616e7366657220746f2073656c66000000000000000000600082015250565b6000611de16017836115b3565b9150611dec82611dab565b602082019050919050565b60006020820190508181036000830152611e1081611dd4565b9050919050565b6000611e32611e2d611e2884611267565b61195c565b611267565b9050919050565b6000611e4482611e17565b9050919050565b6000611e5682611e39565b9050919050565b60008160601b9050919050565b6000611e7582611e5d565b9050919050565b6000611e8782611e6a565b9050919050565b611e9f611e9a82611e4b565b611e7c565b82525050565b6000819050919050565b611ec0611ebb826114cc565b611ea5565b82525050565b6000611ed28285611e8e565b601482019150611ee28284611eaf565b6020820191508190509392505050565b6000606082019050611f076000830186611657565b611f146020830185611599565b8181036040830152611f268184611cb9565b9050949350505050565b60008115159050919050565b611f4581611f30565b8114611f5057600080fd5b50565b600081519050611f6281611f3c565b92915050565b600060208284031215611f7e57611f7d61125d565b5b6000611f8c84828501611f53565b91505092915050565b7f756e61626c6520746f207472616e73666572416e6443616c6c20746f206f726160008201527f636c650000000000000000000000000000000000000000000000000000000000602082015250565b6000611ff16023836115b3565b9150611ffc82611f95565b604082019050919050565b6000602082019050818103600083015261202081611fe4565b9050919050565b6000612032826114cc565b915061203d836114cc565b92508261204d5761204c611786565b5b828206905092915050565b60008160011c9050919050565b6000808291508390505b60018511156120af5780860481111561208b5761208a611715565b5b600185161561209a5780820291505b80810290506120a885612058565b945061206f565b94509492505050565b6000826120c85760019050612184565b816120d65760009050612184565b81600181146120ec57600281146120f657612125565b6001915050612184565b60ff84111561210857612107611715565b5b8360020a91508482111561211f5761211e611715565b5b50612184565b5060208310610133831016604e8410600b841016171561215a5782820a90508381111561215557612154611715565b5b612184565b6121678484846001612065565b9250905081840481111561217e5761217d611715565b5b81810290505b9392505050565b6000612196826114cc565b91506121a1836114cc565b92506121ce7fffffffffffffffffffffffffffffffffffffffffffffffffffffffffffffffff84846120b8565b90509291505056fea2646970667358221220b795b99bd7358f4e05c44e114e831393decdd9a68cfb63dd75bfc3e9e963b65f64736f6c63430008130033",
  "devdoc": {
    "kind": "dev",
    "methods": {},
    "version": 1
  },
  "userdoc": {
    "kind": "user",
    "methods": {
      "acceptOwnership()": {
        "notice": "Allows an ownership transfer to be completed by the recipient."
      },
      "owner()": {
        "notice": "Get the current owner"
      },
      "transferOwnership(address)": {
        "notice": "Allows an owner to begin transferring ownership to a new address."
      }
    },
    "version": 1
  },
  "storageLayout": {
    "storage": [
      {
        "astId": 325,
        "contract": "contracts/CarDealer.sol:CarDealer",
        "label": "s_ens",
        "offset": 0,
        "slot": "0",
        "type": "t_contract(ENSInterface)982"
      },
      {
        "astId": 327,
        "contract": "contracts/CarDealer.sol:CarDealer",
        "label": "s_ensNode",
        "offset": 0,
        "slot": "1",
        "type": "t_bytes32"
      },
      {
        "astId": 330,
        "contract": "contracts/CarDealer.sol:CarDealer",
        "label": "s_link",
        "offset": 0,
        "slot": "2",
        "type": "t_contract(LinkTokenInterface)1382"
      },
      {
        "astId": 333,
        "contract": "contracts/CarDealer.sol:CarDealer",
        "label": "s_oracle",
        "offset": 0,
        "slot": "3",
        "type": "t_contract(OperatorInterface)1047"
      },
      {
        "astId": 336,
        "contract": "contracts/CarDealer.sol:CarDealer",
        "label": "s_requestCount",
        "offset": 0,
        "slot": "4",
        "type": "t_uint256"
      },
      {
        "astId": 340,
        "contract": "contracts/CarDealer.sol:CarDealer",
        "label": "s_pendingRequests",
        "offset": 0,
        "slot": "5",
        "type": "t_mapping(t_bytes32,t_address)"
      },
      {
        "astId": 1117,
        "contract": "contracts/CarDealer.sol:CarDealer",
        "label": "s_owner",
        "offset": 0,
        "slot": "6",
        "type": "t_address"
      },
      {
        "astId": 1119,
        "contract": "contracts/CarDealer.sol:CarDealer",
        "label": "s_pendingOwner",
        "offset": 0,
        "slot": "7",
        "type": "t_address"
      },
      {
        "astId": 2386,
        "contract": "contracts/CarDealer.sol:CarDealer",
        "label": "drivingExperienceScore",
        "offset": 0,
        "slot": "8",
        "type": "t_uint256"
      },
      {
        "astId": 2388,
        "contract": "contracts/CarDealer.sol:CarDealer",
        "label": "drivingExperienceLocation",
        "offset": 0,
        "slot": "9",
        "type": "t_string_storage"
      },
      {
        "astId": 2390,
        "contract": "contracts/CarDealer.sol:CarDealer",
        "label": "lastRequestId",
        "offset": 0,
        "slot": "10",
        "type": "t_bytes32"
      }
    ],
    "types": {
      "t_address": {
        "encoding": "inplace",
        "label": "address",
        "numberOfBytes": "20"
      },
      "t_bytes32": {
        "encoding": "inplace",
        "label": "bytes32",
        "numberOfBytes": "32"
      },
      "t_contract(ENSInterface)982": {
        "encoding": "inplace",
        "label": "contract ENSInterface",
        "numberOfBytes": "20"
      },
      "t_contract(LinkTokenInterface)1382": {
        "encoding": "inplace",
        "label": "contract LinkTokenInterface",
        "numberOfBytes": "20"
      },
      "t_contract(OperatorInterface)1047": {
        "encoding": "inplace",
        "label": "contract OperatorInterface",
        "numberOfBytes": "20"
      },
      "t_mapping(t_bytes32,t_address)": {
        "encoding": "mapping",
        "key": "t_bytes32",
        "label": "mapping(bytes32 => address)",
        "numberOfBytes": "32",
        "value": "t_address"
      },
      "t_string_storage": {
        "encoding": "bytes",
        "label": "string",
        "numberOfBytes": "32"
      },
      "t_uint256": {
        "encoding": "inplace",
        "label": "uint256",
        "numberOfBytes": "32"
      }
    }
  }
}